{
  "_format": "hh-sol-artifact-1",
  "contractName": "PrivateVault",
  "sourceName": "contracts/PrivateVault.sol",
  "abi": [
    {
      "inputs": [
        {
          "internalType": "address",
          "name": "_stablecoin",
          "type": "address"
        },
        {
          "internalType": "address",
          "name": "_oracleAddress",
          "type": "address"
        },
        {
          "internalType": "address",
          "name": "_confidentialComputeAddress",
          "type": "address"
        }
      ],
      "stateMutability": "nonpayable",
      "type": "constructor"
    },
    {
      "inputs": [],
      "name": "AccessControlBadConfirmation",
      "type": "error"
    },
    {
      "inputs": [
        {
          "internalType": "address",
          "name": "account",
          "type": "address"
        },
        {
          "internalType": "bytes32",
          "name": "neededRole",
          "type": "bytes32"
        }
      ],
      "name": "AccessControlUnauthorizedAccount",
      "type": "error"
    },
    {
      "inputs": [],
      "name": "ReentrancyGuardReentrantCall",
      "type": "error"
    },
    {
      "anonymous": false,
      "inputs": [
        {
          "indexed": true,
          "internalType": "address",
          "name": "user",
          "type": "address"
        },
        {
          "indexed": false,
          "internalType": "bytes32",
          "name": "txCommitment",
          "type": "bytes32"
        },
        {
          "indexed": false,
          "internalType": "uint256",
          "name": "timestamp",
          "type": "uint256"
        }
      ],
      "name": "ConfidentialTransactionLogged",
      "type": "event"
    },
    {
      "anonymous": false,
      "inputs": [
        {
          "indexed": true,
          "internalType": "address",
          "name": "borrower",
          "type": "address"
        },
        {
          "indexed": false,
          "internalType": "bytes32",
          "name": "loanCommitment",
          "type": "bytes32"
        },
        {
          "indexed": false,
          "internalType": "uint256",
          "name": "timestamp",
          "type": "uint256"
        }
      ],
      "name": "PrivateLoanIssued",
      "type": "event"
    },
    {
      "anonymous": false,
      "inputs": [
        {
          "indexed": true,
          "internalType": "address",
          "name": "borrower",
          "type": "address"
        },
        {
          "indexed": false,
          "internalType": "bytes32",
          "name": "repaymentCommitment",
          "type": "bytes32"
        },
        {
          "indexed": false,
          "internalType": "uint256",
          "name": "timestamp",
          "type": "uint256"
        }
      ],
      "name": "PrivateLoanRepaid",
      "type": "event"
    },
    {
      "anonymous": false,
      "inputs": [
        {
          "indexed": true,
          "internalType": "address",
          "name": "user",
          "type": "address"
        },
        {
          "indexed": false,
          "internalType": "bytes32",
          "name": "scoreCommitment",
          "type": "bytes32"
        },
        {
          "indexed": false,
          "internalType": "bytes32",
          "name": "worldIdHash",
          "type": "bytes32"
        },
        {
          "indexed": false,
          "internalType": "uint256",
          "name": "timestamp",
          "type": "uint256"
        }
      ],
      "name": "PrivateScoreUpdated",
      "type": "event"
    },
    {
      "anonymous": false,
      "inputs": [
        {
          "indexed": true,
          "internalType": "bytes32",
          "name": "role",
          "type": "bytes32"
        },
        {
          "indexed": true,
          "internalType": "bytes32",
          "name": "previousAdminRole",
          "type": "bytes32"
        },
        {
          "indexed": true,
          "internalType": "bytes32",
          "name": "newAdminRole",
          "type": "bytes32"
        }
      ],
      "name": "RoleAdminChanged",
      "type": "event"
    },
    {
      "anonymous": false,
      "inputs": [
        {
          "indexed": true,
          "internalType": "bytes32",
          "name": "role",
          "type": "bytes32"
        },
        {
          "indexed": true,
          "internalType": "address",
          "name": "account",
          "type": "address"
        },
        {
          "indexed": true,
          "internalType": "address",
          "name": "sender",
          "type": "address"
        }
      ],
      "name": "RoleGranted",
      "type": "event"
    },
    {
      "anonymous": false,
      "inputs": [
        {
          "indexed": true,
          "internalType": "bytes32",
          "name": "role",
          "type": "bytes32"
        },
        {
          "indexed": true,
          "internalType": "address",
          "name": "account",
          "type": "address"
        },
        {
          "indexed": true,
          "internalType": "address",
          "name": "sender",
          "type": "address"
        }
      ],
      "name": "RoleRevoked",
      "type": "event"
    },
    {
      "inputs": [],
      "name": "CONFIDENTIAL_COMPUTE_ROLE",
      "outputs": [
        {
          "internalType": "bytes32",
          "name": "",
          "type": "bytes32"
        }
      ],
      "stateMutability": "view",
      "type": "function"
    },
    {
      "inputs": [],
      "name": "DEFAULT_ADMIN_ROLE",
      "outputs": [
        {
          "internalType": "bytes32",
          "name": "",
          "type": "bytes32"
        }
      ],
      "stateMutability": "view",
      "type": "function"
    },
    {
      "inputs": [],
      "name": "ORACLE_ROLE",
      "outputs": [
        {
          "internalType": "bytes32",
          "name": "",
          "type": "bytes32"
        }
      ],
      "stateMutability": "view",
      "type": "function"
    },
    {
      "inputs": [
        {
          "internalType": "bytes32",
          "name": "liquidityCommitment",
          "type": "bytes32"
        },
        {
          "internalType": "bytes",
          "name": "encryptedAmount",
          "type": "bytes"
        },
        {
          "internalType": "bytes",
          "name": "proof",
          "type": "bytes"
        }
      ],
      "name": "addPrivateLiquidity",
      "outputs": [],
      "stateMutability": "nonpayable",
      "type": "function"
    },
    {
      "inputs": [
        {
          "internalType": "address",
          "name": "",
          "type": "address"
        },
        {
          "internalType": "uint256",
          "name": "",
          "type": "uint256"
        }
      ],
      "name": "confidentialTxHistory",
      "outputs": [
        {
          "internalType": "bytes32",
          "name": "txCommitment",
          "type": "bytes32"
        },
        {
          "internalType": "uint256",
          "name": "timestamp",
          "type": "uint256"
        },
        {
          "internalType": "bytes",
          "name": "encryptedData",
          "type": "bytes"
        }
      ],
      "stateMutability": "view",
      "type": "function"
    },
    {
      "inputs": [
        {
          "internalType": "address",
          "name": "user",
          "type": "address"
        }
      ],
      "name": "getConfidentialHistory",
      "outputs": [
        {
          "components": [
            {
              "internalType": "bytes32",
              "name": "txCommitment",
              "type": "bytes32"
            },
            {
              "internalType": "uint256",
              "name": "timestamp",
              "type": "uint256"
            },
            {
              "internalType": "bytes",
              "name": "encryptedData",
              "type": "bytes"
            }
          ],
          "internalType": "struct PrivateVault.ConfidentialTransaction[]",
          "name": "",
          "type": "tuple[]"
        }
      ],
      "stateMutability": "view",
      "type": "function"
    },
    {
      "inputs": [
        {
          "internalType": "address",
          "name": "user",
          "type": "address"
        }
      ],
      "name": "getEncryptedProfile",
      "outputs": [
        {
          "internalType": "bytes",
          "name": "",
          "type": "bytes"
        }
      ],
      "stateMutability": "view",
      "type": "function"
    },
    {
      "inputs": [
        {
          "internalType": "bytes32",
          "name": "role",
          "type": "bytes32"
        }
      ],
      "name": "getRoleAdmin",
      "outputs": [
        {
          "internalType": "bytes32",
          "name": "",
          "type": "bytes32"
        }
      ],
      "stateMutability": "view",
      "type": "function"
    },
    {
      "inputs": [
        {
          "internalType": "bytes32",
          "name": "role",
          "type": "bytes32"
        },
        {
          "internalType": "address",
          "name": "account",
          "type": "address"
        }
      ],
      "name": "grantRole",
      "outputs": [],
      "stateMutability": "nonpayable",
      "type": "function"
    },
    {
      "inputs": [
        {
          "internalType": "bytes32",
          "name": "role",
          "type": "bytes32"
        },
        {
          "internalType": "address",
          "name": "account",
          "type": "address"
        }
      ],
      "name": "hasRole",
      "outputs": [
        {
          "internalType": "bool",
          "name": "",
          "type": "bool"
        }
      ],
      "stateMutability": "view",
      "type": "function"
    },
    {
      "inputs": [
        {
          "internalType": "address",
          "name": "",
          "type": "address"
        }
      ],
      "name": "privateCreditProfiles",
      "outputs": [
        {
          "internalType": "bytes32",
          "name": "scoreCommitment",
          "type": "bytes32"
        },
        {
          "internalType": "bytes32",
          "name": "worldIdHash",
          "type": "bytes32"
        },
        {
          "internalType": "uint256",
          "name": "lastUpdated",
          "type": "uint256"
        },
        {
          "internalType": "bool",
          "name": "isActive",
          "type": "bool"
        },
        {
          "internalType": "bytes",
          "name": "encryptedScore",
          "type": "bytes"
        }
      ],
      "stateMutability": "view",
      "type": "function"
    },
    {
      "inputs": [
        {
          "internalType": "address",
          "name": "",
          "type": "address"
        }
      ],
      "name": "privateLoans",
      "outputs": [
        {
          "internalType": "bytes32",
          "name": "loanCommitment",
          "type": "bytes32"
        },
        {
          "internalType": "bytes32",
          "name": "collateralCommitment",
          "type": "bytes32"
        },
        {
          "internalType": "uint256",
          "name": "startTime",
          "type": "uint256"
        },
        {
          "internalType": "uint256",
          "name": "dueDate",
          "type": "uint256"
        },
        {
          "internalType": "bool",
          "name": "isActive",
          "type": "bool"
        },
        {
          "internalType": "bytes",
          "name": "encryptedDetails",
          "type": "bytes"
        }
      ],
      "stateMutability": "view",
      "type": "function"
    },
    {
      "inputs": [
        {
          "internalType": "address",
          "name": "user",
          "type": "address"
        },
        {
          "internalType": "bytes32",
          "name": "scoreCommitment",
          "type": "bytes32"
        },
        {
          "internalType": "bytes32",
          "name": "worldIdHash",
          "type": "bytes32"
        },
        {
          "internalType": "bytes",
          "name": "encryptedScore",
          "type": "bytes"
        },
        {
          "internalType": "bytes",
          "name": "proof",
          "type": "bytes"
        }
      ],
      "name": "receivePrivateScore",
      "outputs": [],
      "stateMutability": "nonpayable",
      "type": "function"
    },
    {
      "inputs": [
        {
          "internalType": "bytes32",
          "name": "role",
          "type": "bytes32"
        },
        {
          "internalType": "address",
          "name": "callerConfirmation",
          "type": "address"
        }
      ],
      "name": "renounceRole",
      "outputs": [],
      "stateMutability": "nonpayable",
      "type": "function"
    },
    {
      "inputs": [
        {
          "internalType": "bytes32",
          "name": "repaymentCommitment",
          "type": "bytes32"
        },
        {
          "internalType": "bytes",
          "name": "proof",
          "type": "bytes"
        },
        {
          "internalType": "bytes32",
          "name": "nullifier",
          "type": "bytes32"
        }
      ],
      "name": "repayPrivateLoan",
      "outputs": [],
      "stateMutability": "nonpayable",
      "type": "function"
    },
    {
      "inputs": [
        {
          "internalType": "bytes32",
          "name": "loanCommitment",
          "type": "bytes32"
        },
        {
          "internalType": "bytes32",
          "name": "collateralCommitment",
          "type": "bytes32"
        },
        {
          "internalType": "bytes",
          "name": "encryptedLoanDetails",
          "type": "bytes"
        },
        {
          "internalType": "bytes",
          "name": "proof",
          "type": "bytes"
        },
        {
          "internalType": "bytes32",
          "name": "nullifier",
          "type": "bytes32"
        }
      ],
      "name": "requestPrivateLoan",
      "outputs": [],
      "stateMutability": "payable",
      "type": "function"
    },
    {
      "inputs": [
        {
          "internalType": "bytes32",
          "name": "role",
          "type": "bytes32"
        },
        {
          "internalType": "address",
          "name": "account",
          "type": "address"
        }
      ],
      "name": "revokeRole",
      "outputs": [],
      "stateMutability": "nonpayable",
      "type": "function"
    },
    {
      "inputs": [],
      "name": "stablecoin",
      "outputs": [
        {
          "internalType": "contract IERC20",
          "name": "",
          "type": "address"
        }
      ],
      "stateMutability": "view",
      "type": "function"
    },
    {
      "inputs": [
        {
          "internalType": "bytes4",
          "name": "interfaceId",
          "type": "bytes4"
        }
      ],
      "name": "supportsInterface",
      "outputs": [
        {
          "internalType": "bool",
          "name": "",
          "type": "bool"
        }
      ],
      "stateMutability": "view",
      "type": "function"
    },
    {
      "inputs": [],
      "name": "totalLiquidityCommitment",
      "outputs": [
        {
          "internalType": "uint256",
          "name": "",
          "type": "uint256"
        }
      ],
      "stateMutability": "view",
      "type": "function"
    },
    {
      "inputs": [
        {
          "internalType": "bytes32",
          "name": "",
          "type": "bytes32"
        }
      ],
      "name": "usedNullifiers",
      "outputs": [
        {
          "internalType": "bool",
          "name": "",
          "type": "bool"
        }
      ],
      "stateMutability": "view",
      "type": "function"
    },
    {
      "inputs": [
        {
          "internalType": "address",
          "name": "user",
          "type": "address"
        },
        {
          "internalType": "bytes32",
          "name": "scoreCommitment",
          "type": "bytes32"
        },
        {
          "internalType": "bytes",
          "name": "proof",
          "type": "bytes"
        }
      ],
      "name": "verifyPrivateScore",
      "outputs": [
        {
          "internalType": "bool",
          "name": "",
          "type": "bool"
        }
      ],
      "stateMutability": "view",
      "type": "function"
    },
    {
      "inputs": [
        {
          "internalType": "bytes32",
          "name": "",
          "type": "bytes32"
        }
      ],
      "name": "worldIdToAddress",
      "outputs": [
        {
          "internalType": "address",
          "name": "",
          "type": "address"
        }
      ],
      "stateMutability": "view",
      "type": "function"
    },
    {
      "stateMutability": "payable",
      "type": "receive"
    }
  ],
  "bytecode": "0x60a06040523480156200001157600080fd5b50604051620020fb380380620020fb833981016040819052620000349162000289565b60017f9b779b17422d0df92223018b32b4d1fa46e071723d6817e2486d003becc55f00556001600160a01b038316620000a95760405162461bcd60e51b815260206004820152601260248201527124b73b30b634b21039ba30b13632b1b7b4b760711b60448201526064015b60405180910390fd5b6001600160a01b038216620000f25760405162461bcd60e51b815260206004820152600e60248201526d496e76616c6964206f7261636c6560901b6044820152606401620000a0565b6001600160a01b0381166200013f5760405162461bcd60e51b8152602060048201526012602482015271496e76616c6964204343206164647265737360701b6044820152606401620000a0565b6001600160a01b03831660805262000159600033620001bd565b50620001867f68e79a7bf1e0bc45d0a330c573bc367f9cf464fd326078812f301165fbda4ef183620001bd565b50620001b37fe3eccb57eba5bd1817e500bccaa62584877c7f010cb929528d9fc439694e935282620001bd565b50505050620002d3565b6000828152602081815260408083206001600160a01b038516845290915281205460ff1662000262576000838152602081815260408083206001600160a01b03861684529091529020805460ff19166001179055620002193390565b6001600160a01b0316826001600160a01b0316847f2f8788117e7eff1d82e926ec794901d17c78024a50270940304540a733656f0d60405160405180910390a450600162000266565b5060005b92915050565b80516001600160a01b03811681146200028457600080fd5b919050565b6000806000606084860312156200029f57600080fd5b620002aa846200026c565b9250620002ba602085016200026c565b9150620002ca604085016200026c565b90509250925092565b608051611e0c620002ef60003960006104e70152611e0c6000f3fe6080604052600436106101445760003560e01c806386cfb88a116100b6578063b77979781161006f578063b7797978146103e1578063bb42bfcc14610413578063c690a76f14610461578063d547741f14610481578063d555d91e146104a1578063e9cbd822146104d557600080fd5b806386cfb88a1461030357806389b1e9c61461033057806391d148541461035d5780639d71688d1461037d578063a0af5f371461039d578063a217fddf146103cc57600080fd5b80632f2ff15d116101085780632f2ff15d1461024957806336568abe146102695780635f5142121461028957806364eed960146102a9578063680f5934146102bf5780637bfa4414146102f057600080fd5b806301ffc9a71461015057806307e2cea5146101855780631c4045ef146101c7578063206137aa146101e9578063248a9ca31461021957600080fd5b3661014b57005b600080fd5b34801561015c57600080fd5b5061017061016b36600461173c565b610509565b60405190151581526020015b60405180910390f35b34801561019157600080fd5b506101b97f68e79a7bf1e0bc45d0a330c573bc367f9cf464fd326078812f301165fbda4ef181565b60405190815260200161017c565b3480156101d357600080fd5b506101e76101e23660046117b6565b610540565b005b3480156101f557600080fd5b50610170610204366004611830565b60056020526000908152604090205460ff1681565b34801561022557600080fd5b506101b9610234366004611830565b60009081526020819052604090206001015490565b34801561025557600080fd5b506101e7610264366004611865565b6105f5565b34801561027557600080fd5b506101e7610284366004611865565b610620565b34801561029557600080fd5b506101706102a4366004611891565b610658565b3480156102b557600080fd5b506101b960065481565b3480156102cb57600080fd5b506102df6102da3660046118eb565b61077a565b60405161017c95949392919061194c565b6101e76102fe366004611984565b610838565b34801561030f57600080fd5b5061032361031e3660046118eb565b610c02565b60405161017c9190611a10565b34801561033c57600080fd5b5061035061034b3660046118eb565b610cdb565b60405161017c9190611a23565b34801561036957600080fd5b50610170610378366004611865565b610e4b565b34801561038957600080fd5b506101e7610398366004611aa2565b610e74565b3480156103a957600080fd5b506103bd6103b8366004611b36565b6110fe565b60405161017c93929190611b60565b3480156103d857600080fd5b506101b9600081565b3480156103ed57600080fd5b506104016103fc3660046118eb565b6111cd565b60405161017c96959493929190611b7f565b34801561041f57600080fd5b5061044961042e366004611830565b6003602052600090815260409020546001600160a01b031681565b6040516001600160a01b03909116815260200161017c565b34801561046d57600080fd5b506101e761047c366004611bbe565b611292565b34801561048d57600080fd5b506101e761049c366004611865565b611444565b3480156104ad57600080fd5b506101b97fe3eccb57eba5bd1817e500bccaa62584877c7f010cb929528d9fc439694e935281565b3480156104e157600080fd5b506104497f000000000000000000000000000000000000000000000000000000000000000081565b60006001600160e01b03198216637965db0b60e01b148061053a57506301ffc9a760e01b6001600160e01b03198316145b92915050565b846105665760405162461bcd60e51b815260040161055d90611c11565b60405180910390fd5b610571858383611469565b6105ad5760405162461bcd60e51b815260206004820152600d60248201526c24b73b30b634b210383937b7b360991b604482015260640161055d565b6105ee338686868080601f01602080910402602001604051908101604052809392919081815260200183838082843760009201919091525061148192505050565b5050505050565b60008281526020819052604090206001015461061081611531565b61061a838361153e565b50505050565b6001600160a01b03811633146106495760405163334bd91960e11b815260040160405180910390fd5b61065382826115d0565b505050565b6001600160a01b0384166000908152600160208181526040808420815160a081018352815481529381015492840192909252600282015490830152600381015460ff16151560608301526004810180548493929160808401916106ba90611c3d565b80601f01602080910402602001604051908101604052809291908181526020018280546106e690611c3d565b80156107335780601f1061070857610100808354040283529160200191610733565b820191906000526020600020905b81548152906001019060200180831161071657829003601f168201915b50505050508152505090508060600151610751576000915050610772565b80518514610763576000915050610772565b61076e858585611469565b9150505b949350505050565b6001602081905260009182526040909120805491810154600282015460038301546004840180549394929360ff90921692916107b590611c3d565b80601f01602080910402602001604051908101604052809291908181526020018280546107e190611c3d565b801561082e5780601f106108035761010080835404028352916020019161082e565b820191906000526020600020905b81548152906001019060200180831161081157829003601f168201915b5050505050905085565b61084061163b565b336000908152600160208181526040808420815160a081018352815481529381015492840192909252600282015490830152600381015460ff161515606083015260048101805460808401919061089690611c3d565b80601f01602080910402602001604051908101604052809291908181526020018280546108c290611c3d565b801561090f5780601f106108e45761010080835404028352916020019161090f565b820191906000526020600020905b8154815290600101906020018083116108f257829003601f168201915b5050505050815250509050806060015161095f5760405162461bcd60e51b81526020600482015260116024820152704e6f206372656469742070726f66696c6560781b604482015260640161055d565b3360009081526002602052604090206004015460ff16156109b05760405162461bcd60e51b815260206004820152600b60248201526a4c6f616e2061637469766560a81b604482015260640161055d565b60008281526005602052604090205460ff1615610a005760405162461bcd60e51b815260206004820152600e60248201526d139d5b1b1a599a595c881d5cd95960921b604482015260640161055d565b87610a1d5760405162461bcd60e51b815260040161055d90611c11565b610a2a3389898787611657565b610a765760405162461bcd60e51b815260206004820152601960248201527f496e76616c696420656c69676962696c6974792070726f6f6600000000000000604482015260640161055d565b600082815260056020908152604091829020805460ff19166001179055815160c0810183528a815290810189905242918101829052906060820190610abe9062278d00611c71565b815260200160011515815260200187878080601f01602080910402602001604051908101604052809392919081815260200183838082843760009201829052509390945250503381526002602081815260409283902085518155908501516001820155918401519082015560608301516003820155608083015160048201805460ff191691151591909117905560a08301519091506005820190610b629082611cf6565b50905050610ba7338988888080601f01602080910402602001604051908101604052809392919081815260200183838082843760009201919091525061148192505050565b6040805189815242602082015233917f8f45c94819038188fe8695311365c649f6da33e14bc693d4cf99b4a4023bfcc9910160405180910390a250610bf96001600080516020611db783398151915255565b50505050505050565b60607f68e79a7bf1e0bc45d0a330c573bc367f9cf464fd326078812f301165fbda4ef1610c2e81611531565b6001600160a01b03831660009081526001602052604090206004018054610c5490611c3d565b80601f0160208091040260200160405190810160405280929190818152602001828054610c8090611c3d565b8015610ccd5780601f10610ca257610100808354040283529160200191610ccd565b820191906000526020600020905b815481529060010190602001808311610cb057829003601f168201915b505050505091505b50919050565b6060336001600160a01b0383161480610cfa5750610cfa600033610e4b565b610d355760405162461bcd60e51b815260206004820152600c60248201526b155b985d5d1a1bdc9a5e995960a21b604482015260640161055d565b6001600160a01b038216600090815260046020908152604080832080548251818502810185019093528083529193909284015b82821015610e4057838290600052602060002090600302016040518060600160405290816000820154815260200160018201548152602001600282018054610daf90611c3d565b80601f0160208091040260200160405190810160405280929190818152602001828054610ddb90611c3d565b8015610e285780601f10610dfd57610100808354040283529160200191610e28565b820191906000526020600020905b815481529060010190602001808311610e0b57829003601f168201915b50505050508152505081526020019060010190610d68565b505050509050919050565b6000918252602082815260408084206001600160a01b0393909316845291905290205460ff1690565b7fe3eccb57eba5bd1817e500bccaa62584877c7f010cb929528d9fc439694e9352610e9e81611531565b6001600160a01b038816610ee35760405162461bcd60e51b815260206004820152600c60248201526b24b73b30b634b2103ab9b2b960a11b604482015260640161055d565b86610f005760405162461bcd60e51b815260040161055d90611c11565b6000868152600360205260409020546001600160a01b03161580610f3d57506000868152600360205260409020546001600160a01b038981169116145b610f815760405162461bcd60e51b815260206004820152601560248201527415dbdc9b1908125108185b1c9958591e481d5cd959605a1b604482015260640161055d565b610f8c878484611469565b610fc85760405162461bcd60e51b815260206004820152600d60248201526c24b73b30b634b210383937b7b360991b604482015260640161055d565b6040518060a0016040528088815260200187815260200142815260200160011515815260200186868080601f01602080910402602001604051908101604052809392919081815260200183838082843760009201829052509390945250506001600160a01b038b16815260016020818152604092839020855181559085015191810191909155908301516002820155606083015160038201805460ff1916911515919091179055608083015190915060048201906110869082611cf6565b50505060008681526003602090815260409182902080546001600160a01b038c166001600160a01b0319909116811790915582518a8152918201899052428284015291517fe23b307477201f1fa5200ee33faab6cdd9d371a215a17608028a2eaced6899359181900360600190a25050505050505050565b6004602052816000526040600020818154811061111a57600080fd5b90600052602060002090600302016000915091505080600001549080600101549080600201805461114a90611c3d565b80601f016020809104026020016040519081016040528092919081815260200182805461117690611c3d565b80156111c35780601f10611198576101008083540402835291602001916111c3565b820191906000526020600020905b8154815290600101906020018083116111a657829003601f168201915b5050505050905083565b60026020819052600091825260409091208054600182015492820154600383015460048401546005850180549496959394929360ff9092169261120f90611c3d565b80601f016020809104026020016040519081016040528092919081815260200182805461123b90611c3d565b80156112885780601f1061125d57610100808354040283529160200191611288565b820191906000526020600020905b81548152906001019060200180831161126b57829003601f168201915b5050505050905086565b61129a61163b565b336000908152600260205260409020600481015460ff166112ee5760405162461bcd60e51b815260206004820152600e60248201526d27379030b1ba34bb32903637b0b760911b604482015260640161055d565b60008281526005602052604090205460ff161561133e5760405162461bcd60e51b815260206004820152600e60248201526d139d5b1b1a599a595c881d5cd95960921b604482015260640161055d565b61134f3382600001548787876116a9565b61139b5760405162461bcd60e51b815260206004820152601760248201527f496e76616c69642072657061796d656e742070726f6f66000000000000000000604482015260640161055d565b60008281526005602090815260408083208054600160ff199182161790915560048501805490911690558051918201889052429082015260600160405160208183030381529060405290506113f1338783611481565b6040805187815242602082015233917f6c957e5596ca32e25897b06c197e76448d1484f883ae9dd80112c07adf294291910160405180910390a2505061061a6001600080516020611db783398151915255565b60008281526020819052604090206001015461145f81611531565b61061a83836115d0565b60006020821080159061077257505050901515919050565b6001600160a01b0383166000908152600460209081526040808320815160608101835286815242818501908152928101868152825460018181018555938752949095208151600390950201938455915190830155915160028201906114e69082611cf6565b5050604080518481524260208201526001600160a01b03861692507f84800af6b0daddb76d533bb99fe3faf21abe208e8a5c90137c13ff1db2ce6243910160405180910390a2505050565b61153b81336116cd565b50565b600061154a8383610e4b565b6115c8576000838152602081815260408083206001600160a01b03861684529091529020805460ff191660011790556115803390565b6001600160a01b0316826001600160a01b0316847f2f8788117e7eff1d82e926ec794901d17c78024a50270940304540a733656f0d60405160405180910390a450600161053a565b50600061053a565b60006115dc8383610e4b565b156115c8576000838152602081815260408083206001600160a01b0386168085529252808320805460ff1916905551339286917ff6391f5c32d9c69d2a47ea670b442974b53935d1edc7fd64eb21e047a839171b9190a450600161053a565b61164361170a565b6002600080516020611db783398151915255565b6001600160a01b03851660009081526001602052604081206003015460ff16611682575060006116a0565b6040821080159061169257508415155b801561169d57508315155b90505b95945050505050565b6000602082108015906116925750841515801561169d575050509015159392505050565b6116d78282610e4b565b6117065760405163e2517d3f60e01b81526001600160a01b03821660048201526024810183905260440161055d565b5050565b600080516020611db78339815191525460020361173a57604051633ee5aeb560e01b815260040160405180910390fd5b565b60006020828403121561174e57600080fd5b81356001600160e01b03198116811461176657600080fd5b9392505050565b60008083601f84011261177f57600080fd5b50813567ffffffffffffffff81111561179757600080fd5b6020830191508360208285010111156117af57600080fd5b9250929050565b6000806000806000606086880312156117ce57600080fd5b85359450602086013567ffffffffffffffff808211156117ed57600080fd5b6117f989838a0161176d565b9096509450604088013591508082111561181257600080fd5b5061181f8882890161176d565b969995985093965092949392505050565b60006020828403121561184257600080fd5b5035919050565b80356001600160a01b038116811461186057600080fd5b919050565b6000806040838503121561187857600080fd5b8235915061188860208401611849565b90509250929050565b600080600080606085870312156118a757600080fd5b6118b085611849565b935060208501359250604085013567ffffffffffffffff8111156118d357600080fd5b6118df8782880161176d565b95989497509550505050565b6000602082840312156118fd57600080fd5b61176682611849565b6000815180845260005b8181101561192c57602081850181015186830182015201611910565b506000602082860101526020601f19601f83011685010191505092915050565b858152846020820152836040820152821515606082015260a06080820152600061197960a0830184611906565b979650505050505050565b600080600080600080600060a0888a03121561199f57600080fd5b8735965060208801359550604088013567ffffffffffffffff808211156119c557600080fd5b6119d18b838c0161176d565b909750955060608a01359150808211156119ea57600080fd5b506119f78a828b0161176d565b989b979a50959894979596608090950135949350505050565b6020815260006117666020830184611906565b60006020808301818452808551808352604092508286019150828160051b87010184880160005b83811015611a9457888303603f1901855281518051845287810151888501528601516060878501819052611a8081860183611906565b968901969450505090860190600101611a4a565b509098975050505050505050565b600080600080600080600060a0888a031215611abd57600080fd5b611ac688611849565b96506020880135955060408801359450606088013567ffffffffffffffff80821115611af157600080fd5b611afd8b838c0161176d565b909650945060808a0135915080821115611b1657600080fd5b50611b238a828b0161176d565b989b979a50959850939692959293505050565b60008060408385031215611b4957600080fd5b611b5283611849565b946020939093013593505050565b8381528260208201526060604082015260006116a06060830184611906565b868152856020820152846040820152836060820152821515608082015260c060a08201526000611bb260c0830184611906565b98975050505050505050565b60008060008060608587031215611bd457600080fd5b84359350602085013567ffffffffffffffff811115611bf257600080fd5b611bfe8782880161176d565b9598909750949560400135949350505050565b602080825260129082015271125b9d985b1a590818dbdb5b5a5d1b595b9d60721b604082015260600190565b600181811c90821680611c5157607f821691505b602082108103610cd557634e487b7160e01b600052602260045260246000fd5b8082018082111561053a57634e487b7160e01b600052601160045260246000fd5b634e487b7160e01b600052604160045260246000fd5b601f82111561065357600081815260208120601f850160051c81016020861015611ccf5750805b601f850160051c820191505b81811015611cee57828155600101611cdb565b505050505050565b815167ffffffffffffffff811115611d1057611d10611c92565b611d2481611d1e8454611c3d565b84611ca8565b602080601f831160018114611d595760008415611d415750858301515b600019600386901b1c1916600185901b178555611cee565b600085815260208120601f198616915b82811015611d8857888601518255948401946001909101908401611d69565b5085821015611da65787850151600019600388901b60f8161c191681555b5050505050600190811b0190555056fe9b779b17422d0df92223018b32b4d1fa46e071723d6817e2486d003becc55f00a2646970667358221220e22438da4d5f92205974349cef8a71df57062dee2dc2c39fdc05420a6667580764736f6c63430008140033",
  "linkReferences": {},
  "deployedLinkReferences": {}
}