{
  "_format": "hh-sol-artifact-1",
  "contractName": "CrestVault",
  "sourceName": "contracts/CrestVault.sol",
  "abi": [
    {
      "inputs": [
        {
          "internalType": "address",
          "name": "_stablecoin",
          "type": "address"
        },
        {
          "internalType": "address",
          "name": "_oracleAddress",
          "type": "address"
        },
        {
          "internalType": "address",
          "name": "_priceFeed",
          "type": "address"
        }
      ],
      "stateMutability": "nonpayable",
      "type": "constructor"
    },
    {
      "inputs": [],
      "name": "AccessControlBadConfirmation",
      "type": "error"
    },
    {
      "inputs": [
        {
          "internalType": "address",
          "name": "account",
          "type": "address"
        },
        {
          "internalType": "bytes32",
          "name": "neededRole",
          "type": "bytes32"
        }
      ],
      "name": "AccessControlUnauthorizedAccount",
      "type": "error"
    },
    {
      "inputs": [],
      "name": "ReentrancyGuardReentrantCall",
      "type": "error"
    },
    {
      "anonymous": false,
      "inputs": [
        {
          "indexed": true,
          "internalType": "address",
          "name": "provider",
          "type": "address"
        },
        {
          "indexed": false,
          "internalType": "uint256",
          "name": "amount",
          "type": "uint256"
        }
      ],
      "name": "LiquidityAdded",
      "type": "event"
    },
    {
      "anonymous": false,
      "inputs": [
        {
          "indexed": true,
          "internalType": "address",
          "name": "provider",
          "type": "address"
        },
        {
          "indexed": false,
          "internalType": "uint256",
          "name": "amount",
          "type": "uint256"
        }
      ],
      "name": "LiquidityRemoved",
      "type": "event"
    },
    {
      "anonymous": false,
      "inputs": [
        {
          "indexed": true,
          "internalType": "address",
          "name": "borrower",
          "type": "address"
        },
        {
          "indexed": false,
          "internalType": "uint256",
          "name": "principal",
          "type": "uint256"
        },
        {
          "indexed": false,
          "internalType": "uint256",
          "name": "interest",
          "type": "uint256"
        }
      ],
      "name": "LoanRepaid",
      "type": "event"
    },
    {
      "anonymous": false,
      "inputs": [
        {
          "indexed": true,
          "internalType": "address",
          "name": "borrower",
          "type": "address"
        },
        {
          "indexed": false,
          "internalType": "uint256",
          "name": "amount",
          "type": "uint256"
        },
        {
          "indexed": false,
          "internalType": "uint256",
          "name": "collateral",
          "type": "uint256"
        },
        {
          "indexed": false,
          "internalType": "uint256",
          "name": "interestRate",
          "type": "uint256"
        }
      ],
      "name": "LoanRequested",
      "type": "event"
    },
    {
      "anonymous": false,
      "inputs": [
        {
          "indexed": true,
          "internalType": "bytes32",
          "name": "role",
          "type": "bytes32"
        },
        {
          "indexed": true,
          "internalType": "bytes32",
          "name": "previousAdminRole",
          "type": "bytes32"
        },
        {
          "indexed": true,
          "internalType": "bytes32",
          "name": "newAdminRole",
          "type": "bytes32"
        }
      ],
      "name": "RoleAdminChanged",
      "type": "event"
    },
    {
      "anonymous": false,
      "inputs": [
        {
          "indexed": true,
          "internalType": "bytes32",
          "name": "role",
          "type": "bytes32"
        },
        {
          "indexed": true,
          "internalType": "address",
          "name": "account",
          "type": "address"
        },
        {
          "indexed": true,
          "internalType": "address",
          "name": "sender",
          "type": "address"
        }
      ],
      "name": "RoleGranted",
      "type": "event"
    },
    {
      "anonymous": false,
      "inputs": [
        {
          "indexed": true,
          "internalType": "bytes32",
          "name": "role",
          "type": "bytes32"
        },
        {
          "indexed": true,
          "internalType": "address",
          "name": "account",
          "type": "address"
        },
        {
          "indexed": true,
          "internalType": "address",
          "name": "sender",
          "type": "address"
        }
      ],
      "name": "RoleRevoked",
      "type": "event"
    },
    {
      "anonymous": false,
      "inputs": [
        {
          "indexed": true,
          "internalType": "address",
          "name": "user",
          "type": "address"
        },
        {
          "indexed": false,
          "internalType": "uint256",
          "name": "score",
          "type": "uint256"
        },
        {
          "indexed": false,
          "internalType": "uint256",
          "name": "timestamp",
          "type": "uint256"
        },
        {
          "indexed": false,
          "internalType": "bytes32",
          "name": "worldIdHash",
          "type": "bytes32"
        }
      ],
      "name": "ScoreUpdated",
      "type": "event"
    },
    {
      "inputs": [],
      "name": "DEFAULT_ADMIN_ROLE",
      "outputs": [
        {
          "internalType": "bytes32",
          "name": "",
          "type": "bytes32"
        }
      ],
      "stateMutability": "view",
      "type": "function"
    },
    {
      "inputs": [],
      "name": "LOAN_DURATION",
      "outputs": [
        {
          "internalType": "uint256",
          "name": "",
          "type": "uint256"
        }
      ],
      "stateMutability": "view",
      "type": "function"
    },
    {
      "inputs": [],
      "name": "ORACLE_ROLE",
      "outputs": [
        {
          "internalType": "bytes32",
          "name": "",
          "type": "bytes32"
        }
      ],
      "stateMutability": "view",
      "type": "function"
    },
    {
      "inputs": [],
      "name": "PRIME_COLLATERAL_RATIO",
      "outputs": [
        {
          "internalType": "uint256",
          "name": "",
          "type": "uint256"
        }
      ],
      "stateMutability": "view",
      "type": "function"
    },
    {
      "inputs": [],
      "name": "PRIME_INTEREST_RATE",
      "outputs": [
        {
          "internalType": "uint256",
          "name": "",
          "type": "uint256"
        }
      ],
      "stateMutability": "view",
      "type": "function"
    },
    {
      "inputs": [],
      "name": "PRIME_THRESHOLD",
      "outputs": [
        {
          "internalType": "uint256",
          "name": "",
          "type": "uint256"
        }
      ],
      "stateMutability": "view",
      "type": "function"
    },
    {
      "inputs": [],
      "name": "STANDARD_COLLATERAL_RATIO",
      "outputs": [
        {
          "internalType": "uint256",
          "name": "",
          "type": "uint256"
        }
      ],
      "stateMutability": "view",
      "type": "function"
    },
    {
      "inputs": [],
      "name": "STANDARD_INTEREST_RATE",
      "outputs": [
        {
          "internalType": "uint256",
          "name": "",
          "type": "uint256"
        }
      ],
      "stateMutability": "view",
      "type": "function"
    },
    {
      "inputs": [],
      "name": "STANDARD_THRESHOLD",
      "outputs": [
        {
          "internalType": "uint256",
          "name": "",
          "type": "uint256"
        }
      ],
      "stateMutability": "view",
      "type": "function"
    },
    {
      "inputs": [
        {
          "internalType": "uint256",
          "name": "amount",
          "type": "uint256"
        }
      ],
      "name": "addLiquidity",
      "outputs": [],
      "stateMutability": "nonpayable",
      "type": "function"
    },
    {
      "inputs": [
        {
          "internalType": "address",
          "name": "user",
          "type": "address"
        },
        {
          "internalType": "uint256",
          "name": "amount",
          "type": "uint256"
        }
      ],
      "name": "calculateRequiredCollateral",
      "outputs": [
        {
          "internalType": "uint256",
          "name": "",
          "type": "uint256"
        }
      ],
      "stateMutability": "view",
      "type": "function"
    },
    {
      "inputs": [
        {
          "internalType": "address",
          "name": "",
          "type": "address"
        }
      ],
      "name": "creditProfiles",
      "outputs": [
        {
          "internalType": "uint256",
          "name": "score",
          "type": "uint256"
        },
        {
          "internalType": "uint256",
          "name": "lastUpdated",
          "type": "uint256"
        },
        {
          "internalType": "bytes32",
          "name": "worldIdHash",
          "type": "bytes32"
        },
        {
          "internalType": "string",
          "name": "justification",
          "type": "string"
        },
        {
          "internalType": "bool",
          "name": "isActive",
          "type": "bool"
        }
      ],
      "stateMutability": "view",
      "type": "function"
    },
    {
      "inputs": [],
      "name": "getAvailableLiquidity",
      "outputs": [
        {
          "internalType": "uint256",
          "name": "",
          "type": "uint256"
        }
      ],
      "stateMutability": "view",
      "type": "function"
    },
    {
      "inputs": [
        {
          "internalType": "address",
          "name": "user",
          "type": "address"
        }
      ],
      "name": "getCreditProfile",
      "outputs": [
        {
          "components": [
            {
              "internalType": "uint256",
              "name": "score",
              "type": "uint256"
            },
            {
              "internalType": "uint256",
              "name": "lastUpdated",
              "type": "uint256"
            },
            {
              "internalType": "bytes32",
              "name": "worldIdHash",
              "type": "bytes32"
            },
            {
              "internalType": "string",
              "name": "justification",
              "type": "string"
            },
            {
              "internalType": "bool",
              "name": "isActive",
              "type": "bool"
            }
          ],
          "internalType": "struct CrestVault.CreditProfile",
          "name": "",
          "type": "tuple"
        }
      ],
      "stateMutability": "view",
      "type": "function"
    },
    {
      "inputs": [],
      "name": "getLatestPrice",
      "outputs": [
        {
          "internalType": "uint256",
          "name": "",
          "type": "uint256"
        }
      ],
      "stateMutability": "view",
      "type": "function"
    },
    {
      "inputs": [
        {
          "internalType": "address",
          "name": "user",
          "type": "address"
        }
      ],
      "name": "getLoan",
      "outputs": [
        {
          "components": [
            {
              "internalType": "uint256",
              "name": "principal",
              "type": "uint256"
            },
            {
              "internalType": "uint256",
              "name": "collateral",
              "type": "uint256"
            },
            {
              "internalType": "uint256",
              "name": "interestRate",
              "type": "uint256"
            },
            {
              "internalType": "uint256",
              "name": "startTime",
              "type": "uint256"
            },
            {
              "internalType": "uint256",
              "name": "dueDate",
              "type": "uint256"
            },
            {
              "internalType": "bool",
              "name": "isActive",
              "type": "bool"
            }
          ],
          "internalType": "struct CrestVault.Loan",
          "name": "",
          "type": "tuple"
        }
      ],
      "stateMutability": "view",
      "type": "function"
    },
    {
      "inputs": [
        {
          "internalType": "bytes32",
          "name": "role",
          "type": "bytes32"
        }
      ],
      "name": "getRoleAdmin",
      "outputs": [
        {
          "internalType": "bytes32",
          "name": "",
          "type": "bytes32"
        }
      ],
      "stateMutability": "view",
      "type": "function"
    },
    {
      "inputs": [
        {
          "internalType": "bytes32",
          "name": "role",
          "type": "bytes32"
        },
        {
          "internalType": "address",
          "name": "account",
          "type": "address"
        }
      ],
      "name": "grantRole",
      "outputs": [],
      "stateMutability": "nonpayable",
      "type": "function"
    },
    {
      "inputs": [
        {
          "internalType": "bytes32",
          "name": "role",
          "type": "bytes32"
        },
        {
          "internalType": "address",
          "name": "account",
          "type": "address"
        }
      ],
      "name": "hasRole",
      "outputs": [
        {
          "internalType": "bool",
          "name": "",
          "type": "bool"
        }
      ],
      "stateMutability": "view",
      "type": "function"
    },
    {
      "inputs": [
        {
          "internalType": "address",
          "name": "user",
          "type": "address"
        }
      ],
      "name": "isLiquidatable",
      "outputs": [
        {
          "internalType": "bool",
          "name": "",
          "type": "bool"
        }
      ],
      "stateMutability": "view",
      "type": "function"
    },
    {
      "inputs": [
        {
          "internalType": "address",
          "name": "user",
          "type": "address"
        }
      ],
      "name": "liquidate",
      "outputs": [],
      "stateMutability": "nonpayable",
      "type": "function"
    },
    {
      "inputs": [
        {
          "internalType": "address",
          "name": "",
          "type": "address"
        }
      ],
      "name": "loans",
      "outputs": [
        {
          "internalType": "uint256",
          "name": "principal",
          "type": "uint256"
        },
        {
          "internalType": "uint256",
          "name": "collateral",
          "type": "uint256"
        },
        {
          "internalType": "uint256",
          "name": "interestRate",
          "type": "uint256"
        },
        {
          "internalType": "uint256",
          "name": "startTime",
          "type": "uint256"
        },
        {
          "internalType": "uint256",
          "name": "dueDate",
          "type": "uint256"
        },
        {
          "internalType": "bool",
          "name": "isActive",
          "type": "bool"
        }
      ],
      "stateMutability": "view",
      "type": "function"
    },
    {
      "inputs": [],
      "name": "priceFeed",
      "outputs": [
        {
          "internalType": "contract AggregatorV3Interface",
          "name": "",
          "type": "address"
        }
      ],
      "stateMutability": "view",
      "type": "function"
    },
    {
      "inputs": [
        {
          "internalType": "bytes",
          "name": "encodedData",
          "type": "bytes"
        }
      ],
      "name": "receiveScore",
      "outputs": [],
      "stateMutability": "nonpayable",
      "type": "function"
    },
    {
      "inputs": [
        {
          "internalType": "bytes32",
          "name": "role",
          "type": "bytes32"
        },
        {
          "internalType": "address",
          "name": "callerConfirmation",
          "type": "address"
        }
      ],
      "name": "renounceRole",
      "outputs": [],
      "stateMutability": "nonpayable",
      "type": "function"
    },
    {
      "inputs": [],
      "name": "repayLoan",
      "outputs": [],
      "stateMutability": "nonpayable",
      "type": "function"
    },
    {
      "inputs": [
        {
          "internalType": "uint256",
          "name": "amount",
          "type": "uint256"
        }
      ],
      "name": "requestLoan",
      "outputs": [],
      "stateMutability": "payable",
      "type": "function"
    },
    {
      "inputs": [
        {
          "internalType": "bytes32",
          "name": "role",
          "type": "bytes32"
        },
        {
          "internalType": "address",
          "name": "account",
          "type": "address"
        }
      ],
      "name": "revokeRole",
      "outputs": [],
      "stateMutability": "nonpayable",
      "type": "function"
    },
    {
      "inputs": [],
      "name": "stablecoin",
      "outputs": [
        {
          "internalType": "contract IERC20",
          "name": "",
          "type": "address"
        }
      ],
      "stateMutability": "view",
      "type": "function"
    },
    {
      "inputs": [
        {
          "internalType": "bytes4",
          "name": "interfaceId",
          "type": "bytes4"
        }
      ],
      "name": "supportsInterface",
      "outputs": [
        {
          "internalType": "bool",
          "name": "",
          "type": "bool"
        }
      ],
      "stateMutability": "view",
      "type": "function"
    },
    {
      "inputs": [],
      "name": "totalBorrowed",
      "outputs": [
        {
          "internalType": "uint256",
          "name": "",
          "type": "uint256"
        }
      ],
      "stateMutability": "view",
      "type": "function"
    },
    {
      "inputs": [],
      "name": "totalLiquidity",
      "outputs": [
        {
          "internalType": "uint256",
          "name": "",
          "type": "uint256"
        }
      ],
      "stateMutability": "view",
      "type": "function"
    },
    {
      "inputs": [
        {
          "internalType": "bytes32",
          "name": "",
          "type": "bytes32"
        }
      ],
      "name": "worldIdToAddress",
      "outputs": [
        {
          "internalType": "address",
          "name": "",
          "type": "address"
        }
      ],
      "stateMutability": "view",
      "type": "function"
    },
    {
      "stateMutability": "payable",
      "type": "receive"
    }
  ],
  "bytecode": "0x60c06040523480156200001157600080fd5b50604051620025ec380380620025ec833981016040819052620000349162000287565b60017f9b779b17422d0df92223018b32b4d1fa46e071723d6817e2486d003becc55f00556001600160a01b038316620000b45760405162461bcd60e51b815260206004820152601a60248201527f496e76616c696420737461626c65636f696e206164647265737300000000000060448201526064015b60405180910390fd5b6001600160a01b0382166200010c5760405162461bcd60e51b815260206004820152601660248201527f496e76616c6964206f7261636c652061646472657373000000000000000000006044820152606401620000ab565b6001600160a01b038116620001645760405162461bcd60e51b815260206004820152601a60248201527f496e76616c6964207072696365206665656420616464726573730000000000006044820152606401620000ab565b6001600160a01b03808416608052811660a05262000184600033620001bb565b50620001b17f68e79a7bf1e0bc45d0a330c573bc367f9cf464fd326078812f301165fbda4ef183620001bb565b50505050620002d1565b6000828152602081815260408083206001600160a01b038516845290915281205460ff1662000260576000838152602081815260408083206001600160a01b03861684529091529020805460ff19166001179055620002173390565b6001600160a01b0316826001600160a01b0316847f2f8788117e7eff1d82e926ec794901d17c78024a50270940304540a733656f0d60405160405180910390a450600162000264565b5060005b92915050565b80516001600160a01b03811681146200028257600080fd5b919050565b6000806000606084860312156200029d57600080fd5b620002a8846200026a565b9250620002b8602085016200026a565b9150620002c8604085016200026a565b90509250925092565b60805160a0516122d26200031a60003960008181610554015261176301526000818161069401528181610a18015281816111970152818161164d01526119b901526122d26000f3fe6080604052600436106101f25760003560e01c806351c6590a1161010d5780639b745aec116100a0578063e02a4dfd1161006f578063e02a4dfd1461066b578063e9cbd82214610682578063f53fdf09146106b6578063f966ade7146106cc578063ff18aab0146106e157600080fd5b80639b745aec146105eb578063a217fddf14610600578063bb42bfcc14610615578063d547741f1461064b57600080fd5b80637d4da05c116100dc5780637d4da05c1461058e5780638d5d3429146105a35780638e15f473146105b657806391d14854146105cb57600080fd5b806351c6590a146104895780635b67d1a2146104a957806373b4086b146104be578063741bef1a1461054257600080fd5b80632f2ff15d116101855780633b43228c116101545780633b43228c1461040257806345171f26146104225780634ac6d97b146104535780634c19386c1461047357600080fd5b80632f2ff15d146103325780632f8655681461035457806333481fc91461037457806336568abe146103e257600080fd5b806315770f92116101c157806315770f92146102c25780631c8ee720146102d85780631fbe9405146102ed578063248a9ca31461030257600080fd5b806301ffc9a7146101fe578063042e02cf14610233578063079bafe31461025357806307e2cea51461028057600080fd5b366101f957005b600080fd5b34801561020a57600080fd5b5061021e610219366004611d22565b6106f7565b60405190151581526020015b60405180910390f35b34801561023f57600080fd5b5061021e61024e366004611d68565b61072e565b34801561025f57600080fd5b5061027361026e366004611d68565b610803565b60405161022a9190611dcb565b34801561028c57600080fd5b506102b47f68e79a7bf1e0bc45d0a330c573bc367f9cf464fd326078812f301165fbda4ef181565b60405190815260200161022a565b3480156102ce57600080fd5b506102b460045481565b3480156102e457600080fd5b506102b4609681565b3480156102f957600080fd5b506102b4606e81565b34801561030e57600080fd5b506102b461031d366004611e1d565b60009081526020819052604090206001015490565b34801561033e57600080fd5b5061035261034d366004611e36565b610924565b005b34801561036057600080fd5b5061035261036f366004611d68565b61094f565b34801561038057600080fd5b5061039461038f366004611d68565b610b82565b60405161022a9190600060c082019050825182526020830151602083015260408301516040830152606083015160608301526080830151608083015260a0830151151560a083015292915050565b3480156103ee57600080fd5b506103526103fd366004611e36565b610c21565b34801561040e57600080fd5b506102b461041d366004611e66565b610c59565b34801561042e57600080fd5b5061044261043d366004611d68565b610e1f565b60405161022a959493929190611e92565b34801561045f57600080fd5b5061035261046e366004611ecb565b610eda565b34801561047f57600080fd5b506102b460055481565b34801561049557600080fd5b506103526104a4366004611e1d565b611134565b3480156104b557600080fd5b506102b4605081565b3480156104ca57600080fd5b506105136104d9366004611d68565b6002602081905260009182526040909120805460018201549282015460038301546004840154600590940154929493919290919060ff1686565b6040805196875260208701959095529385019290925260608401526080830152151560a082015260c00161022a565b34801561054e57600080fd5b506105767f000000000000000000000000000000000000000000000000000000000000000081565b6040516001600160a01b03909116815260200161022a565b34801561059a57600080fd5b506102b4603281565b6103526105b1366004611e1d565b611299565b3480156105c257600080fd5b506102b461175c565b3480156105d757600080fd5b5061021e6105e6366004611e36565b61187a565b3480156105f757600080fd5b506102b46118a3565b34801561060c57600080fd5b506102b4600081565b34801561062157600080fd5b50610576610630366004611e1d565b6003602052600090815260409020546001600160a01b031681565b34801561065757600080fd5b50610352610666366004611e36565b6118ba565b34801561067757600080fd5b506102b462278d0081565b34801561068e57600080fd5b506105767f000000000000000000000000000000000000000000000000000000000000000081565b3480156106c257600080fd5b506102b46101c281565b3480156106d857600080fd5b506103526118df565b3480156106ed57600080fd5b506102b46102a881565b60006001600160e01b03198216637965db0b60e01b148061072857506301ffc9a760e01b6001600160e01b03198316145b92915050565b6001600160a01b0381166000908152600260208181526040808420815160c081018352815481526001820154938101939093529283015490820152600382015460608201526004820154608082015260059091015460ff16151560a0820181905261079c5750600092915050565b60006107a661175c565b905060006a52b7d2dcc80cd2e40000008284602001516107c69190611f53565b6107d390620f4240611f53565b6107dd9190611f6a565b83519091506064906107f0906065611f53565b6107fa9190611f6a565b11949350505050565b6040805160a081018252600080825260208201819052918101829052606080820152608081019190915260016000836001600160a01b03166001600160a01b031681526020019081526020016000206040518060a001604052908160008201548152602001600182015481526020016002820154815260200160038201805461088b90611f8c565b80601f01602080910402602001604051908101604052809291908181526020018280546108b790611f8c565b80156109045780601f106108d957610100808354040283529160200191610904565b820191906000526020600020905b8154815290600101906020018083116108e757829003601f168201915b50505091835250506004919091015460ff16151560209091015292915050565b60008281526020819052604090206001015461093f81611b92565b6109498383611b9c565b50505050565b610957611c2e565b6109608161072e565b6109a95760405162461bcd60e51b81526020600482015260156024820152744c6f616e206e6f74206c6971756964617461626c6560581b60448201526064015b60405180910390fd5b6001600160a01b038116600090815260026020526040812060018101805482546005808501805460ff19169055928590558254939491939092839290916109f1908490611fc0565b90915550506040516323b872dd60e01b8152336004820152306024820152604481018290527f00000000000000000000000000000000000000000000000000000000000000006001600160a01b0316906323b872dd906064016020604051808303816000875af1158015610a69573d6000803e3d6000fd5b505050506040513d601f19601f82011682018060405250810190610a8d9190611fd3565b610acc5760405162461bcd60e51b815260206004820152601060248201526f14995c185e5b595b9d0819985a5b195960821b60448201526064016109a0565b604051600090339084908381818185875af1925050503d8060008114610b0e576040519150601f19603f3d011682016040523d82523d6000602084013e610b13565b606091505b5050905080610b645760405162461bcd60e51b815260206004820152601a60248201527f436f6c6c61746572616c207472616e73666572206661696c656400000000000060448201526064016109a0565b50505050610b7f600160008051602061227d83398151915255565b50565b610bbd6040518060c0016040528060008152602001600081526020016000815260200160008152602001600081526020016000151581525090565b506001600160a01b0316600090815260026020818152604092839020835160c08101855281548152600182015492810192909252918201549281019290925260038101546060830152600481015460808301526005015460ff16151560a082015290565b6001600160a01b0381163314610c4a5760405163334bd91960e11b815260040160405180910390fd5b610c548282611c4a565b505050565b60008060016000856001600160a01b03166001600160a01b031681526020019081526020016000206040518060a0016040529081600082015481526020016001820154815260200160028201548152602001600382018054610cba90611f8c565b80601f0160208091040260200160405190810160405280929190818152602001828054610ce690611f8c565b8015610d335780601f10610d0857610100808354040283529160200191610d33565b820191906000526020600020905b815481529060010190602001808311610d1657829003601f168201915b50505091835250506004919091015460ff1615156020909101528051909150600090605011610d645750606e610db4565b8151603211610d7557506096610db4565b60405162461bcd60e51b81526020600482015260146024820152734372656469742073636f726520746f6f206c6f7760601b60448201526064016109a0565b6000610dbe61175c565b905060006064610dce8488611f53565b610dd89190611f6a565b90506000610de983620f4240611f53565b610dfb83670de0b6b3a7640000611f53565b610e09906305f5e100611f53565b610e139190611f6a565b98975050505050505050565b6001602081905260009182526040909120805491810154600282015460038301805492939192610e4e90611f8c565b80601f0160208091040260200160405190810160405280929190818152602001828054610e7a90611f8c565b8015610ec75780601f10610e9c57610100808354040283529160200191610ec7565b820191906000526020600020905b815481529060010190602001808311610eaa57829003601f168201915b5050506004909301549192505060ff1685565b7f68e79a7bf1e0bc45d0a330c573bc367f9cf464fd326078812f301165fbda4ef1610f0481611b92565b600080808080610f168789018961200b565b9450945094509450945060018410158015610f32575060648411155b610f755760405162461bcd60e51b8152602060048201526014602482015273496e76616c6964206372656469742073636f726560601b60448201526064016109a0565b42831115610fb85760405162461bcd60e51b815260206004820152601060248201526f04675747572652074696d657374616d760841b60448201526064016109a0565b6000828152600360205260409020546001600160a01b03161580610ff557506000828152600360205260409020546001600160a01b038681169116145b6110395760405162461bcd60e51b815260206004820152601560248201527415dbdc9b1908125108185b1c9958591e481d5cd959605a1b60448201526064016109a0565b6040805160a0810182528581526020808201868152828401868152606084018681526001608086018190526001600160a01b038c166000908152948190529590932084518155915194820194909455925160028401555190919060038201906110a2908261213a565b50608091909101516004909101805460ff191691151591909117905560008281526003602090815260409182902080546001600160a01b0319166001600160a01b03891690811790915582518781529182018690529181018490527f1ad06d514caaf2a99f3a34ee496edb82a77f11f4b5cce2274483ee97529514a99060600160405180910390a25050505050505050565b600081116111755760405162461bcd60e51b815260206004820152600e60248201526d125b9d985b1a5908185b5bdd5b9d60921b60448201526064016109a0565b6040516323b872dd60e01b8152336004820152306024820152604481018290527f00000000000000000000000000000000000000000000000000000000000000006001600160a01b0316906323b872dd906064016020604051808303816000875af11580156111e8573d6000803e3d6000fd5b505050506040513d601f19601f8201168201806040525081019061120c9190611fd3565b61124a5760405162461bcd60e51b815260206004820152600f60248201526e151c985b9cd9995c8819985a5b1959608a1b60448201526064016109a0565b806004600082825461125c91906121fa565b909155505060405181815233907fc17cea59c2955cb181b03393209566960365771dbba9dc3d510180e7cb3120889060200160405180910390a250565b6112a1611c2e565b336000908152600160208181526040808420815160a0810183528154815293810154928401929092526002820154908301526003810180546060840191906112e890611f8c565b80601f016020809104026020016040519081016040528092919081815260200182805461131490611f8c565b80156113615780601f1061133657610100808354040283529160200191611361565b820191906000526020600020905b81548152906001019060200180831161134457829003601f168201915b50505091835250506004919091015460ff16151560209091015260808101519091506113cf5760405162461bcd60e51b815260206004820152601860248201527f4e6f20616374697665206372656469742070726f66696c65000000000000000060448201526064016109a0565b80516114145760405162461bcd60e51b8152602060048201526014602482015273496e76616c6964206372656469742073636f726560601b60448201526064016109a0565b3360009081526002602052604090206005015460ff161561146e5760405162461bcd60e51b81526020600482015260146024820152734578697374696e67206c6f616e2061637469766560601b60448201526064016109a0565b600082116114b45760405162461bcd60e51b8152602060048201526013602482015272125b9d985b1a59081b1bd85b88185b5bdd5b9d606a1b60448201526064016109a0565b816005546004546114c59190611fc0565b101561150c5760405162461bcd60e51b8152602060048201526016602482015275496e73756666696369656e74206c697175696469747960501b60448201526064016109a0565b6000605082600001511061152357506101c2611528565b506102a85b60006115343385610c59565b9050803410156115865760405162461bcd60e51b815260206004820152601760248201527f496e73756666696369656e7420636f6c6c61746572616c00000000000000000060448201526064016109a0565b6040518060c0016040528085815260200134815260200183815260200142815260200162278d00426115b891906121fa565b815260016020918201819052336000908152600280845260408083208651815594860151938501939093559184015191830191909155606083015160038301556080830151600483015560a0909201516005918201805460ff1916911515919091179055805486929061162c9084906121fa565b909155505060405163a9059cbb60e01b8152336004820152602481018590527f00000000000000000000000000000000000000000000000000000000000000006001600160a01b03169063a9059cbb906044016020604051808303816000875af115801561169e573d6000803e3d6000fd5b505050506040513d601f19601f820116820180604052508101906116c29190611fd3565b6117005760405162461bcd60e51b815260206004820152600f60248201526e151c985b9cd9995c8819985a5b1959608a1b60448201526064016109a0565b6040805185815234602082015290810183905233907f470e775e4fa2bd975947314dc912d0dd85338d809a6b967e36382e32a3b6f2bb9060600160405180910390a2505050610b7f600160008051602061227d83398151915255565b60008060007f00000000000000000000000000000000000000000000000000000000000000006001600160a01b031663feaf968c6040518163ffffffff1660e01b815260040160a060405180830381865afa1580156117bf573d6000803e3d6000fd5b505050506040513d601f19601f820116820180604052508101906117e3919061222c565b509350509250506000821361182a5760405162461bcd60e51b815260206004820152600d60248201526c496e76616c696420707269636560981b60448201526064016109a0565b6118386301e1338042611fc0565b81116118745760405162461bcd60e51b815260206004820152600b60248201526a5374616c6520707269636560a81b60448201526064016109a0565b50919050565b6000918252602082815260408084206001600160a01b0393909316845291905290205460ff1690565b60006005546004546118b59190611fc0565b905090565b6000828152602081905260409020600101546118d581611b92565b6109498383611c4a565b6118e7611c2e565b336000908152600260205260409020600581015460ff1661193b5760405162461bcd60e51b815260206004820152600e60248201526d27379030b1ba34bb32903637b0b760911b60448201526064016109a0565b600081600301544261194d9190611fc0565b9050600064496cebb800828460020154856000015461196c9190611f53565b6119769190611f53565b6119809190611f6a565b9050600081846000015461199491906121fa565b6040516323b872dd60e01b8152336004820152306024820152604481018290529091507f00000000000000000000000000000000000000000000000000000000000000006001600160a01b0316906323b872dd906064016020604051808303816000875af1158015611a0a573d6000803e3d6000fd5b505050506040513d601f19601f82011682018060405250810190611a2e9190611fd3565b611a6d5760405162461bcd60e51b815260206004820152601060248201526f14995c185e5b595b9d0819985a5b195960821b60448201526064016109a0565b835460058054600090611a81908490611fc0565b909155505060018401805460058601805460ff19169055600091829055604051909190339083908381818185875af1925050503d8060008114611ae0576040519150601f19603f3d011682016040523d82523d6000602084013e611ae5565b606091505b5050905080611b365760405162461bcd60e51b815260206004820152601860248201527f436f6c6c61746572616c2072657475726e206661696c6564000000000000000060448201526064016109a0565b8554604080519182526020820186905233917fc7ce0a35f17b490de2a317e7fecb2cae86b1abffb03800b2f492823521382698910160405180910390a2505050505050611b90600160008051602061227d83398151915255565b565b610b7f8133611cb5565b6000611ba8838361187a565b611c26576000838152602081815260408083206001600160a01b03861684529091529020805460ff19166001179055611bde3390565b6001600160a01b0316826001600160a01b0316847f2f8788117e7eff1d82e926ec794901d17c78024a50270940304540a733656f0d60405160405180910390a4506001610728565b506000610728565b611c36611cf2565b600260008051602061227d83398151915255565b6000611c56838361187a565b15611c26576000838152602081815260408083206001600160a01b0386168085529252808320805460ff1916905551339286917ff6391f5c32d9c69d2a47ea670b442974b53935d1edc7fd64eb21e047a839171b9190a4506001610728565b611cbf828261187a565b611cee5760405163e2517d3f60e01b81526001600160a01b0382166004820152602481018390526044016109a0565b5050565b60008051602061227d83398151915254600203611b9057604051633ee5aeb560e01b815260040160405180910390fd5b600060208284031215611d3457600080fd5b81356001600160e01b031981168114611d4c57600080fd5b9392505050565b6001600160a01b0381168114610b7f57600080fd5b600060208284031215611d7a57600080fd5b8135611d4c81611d53565b6000815180845260005b81811015611dab57602081850181015186830182015201611d8f565b506000602082860101526020601f19601f83011685010191505092915050565b602081528151602082015260208201516040820152604082015160608201526000606083015160a06080840152611e0560c0840182611d85565b90506080840151151560a08401528091505092915050565b600060208284031215611e2f57600080fd5b5035919050565b60008060408385031215611e4957600080fd5b823591506020830135611e5b81611d53565b809150509250929050565b60008060408385031215611e7957600080fd5b8235611e8481611d53565b946020939093013593505050565b85815284602082015283604082015260a060608201526000611eb760a0830185611d85565b905082151560808301529695505050505050565b60008060208385031215611ede57600080fd5b823567ffffffffffffffff80821115611ef657600080fd5b818501915085601f830112611f0a57600080fd5b813581811115611f1957600080fd5b866020828501011115611f2b57600080fd5b60209290920196919550909350505050565b634e487b7160e01b600052601160045260246000fd5b808202811582820484141761072857610728611f3d565b600082611f8757634e487b7160e01b600052601260045260246000fd5b500490565b600181811c90821680611fa057607f821691505b60208210810361187457634e487b7160e01b600052602260045260246000fd5b8181038181111561072857610728611f3d565b600060208284031215611fe557600080fd5b81518015158114611d4c57600080fd5b634e487b7160e01b600052604160045260246000fd5b600080600080600060a0868803121561202357600080fd5b853561202e81611d53565b9450602086013593506040860135925060608601359150608086013567ffffffffffffffff8082111561206057600080fd5b818801915088601f83011261207457600080fd5b81358181111561208657612086611ff5565b604051601f8201601f19908116603f011681019083821181831017156120ae576120ae611ff5565b816040528281528b60208487010111156120c757600080fd5b8260208601602083013760006020848301015280955050505050509295509295909350565b601f821115610c5457600081815260208120601f850160051c810160208610156121135750805b601f850160051c820191505b818110156121325782815560010161211f565b505050505050565b815167ffffffffffffffff81111561215457612154611ff5565b612168816121628454611f8c565b846120ec565b602080601f83116001811461219d57600084156121855750858301515b600019600386901b1c1916600185901b178555612132565b600085815260208120601f198616915b828110156121cc578886015182559484019460019091019084016121ad565b50858210156121ea5787850151600019600388901b60f8161c191681555b5050505050600190811b01905550565b8082018082111561072857610728611f3d565b805169ffffffffffffffffffff8116811461222757600080fd5b919050565b600080600080600060a0868803121561224457600080fd5b61224d8661220d565b94506020860151935060408601519250606086015191506122706080870161220d565b9050929550929590935056fe9b779b17422d0df92223018b32b4d1fa46e071723d6817e2486d003becc55f00a26469706673582212207c58c7c43fa1c4c2655257e203c6f5c63c63b00f5e6e9f8d1cd098e5bfcbb9de64736f6c63430008140033",
  "linkReferences": {},
  "deployedLinkReferences": {}
}