{"address":"0xDc64a140Aa3E981100a9becA4E685f962f0cF6C9","bytecode":"0x60a06040523480156200001157600080fd5b5060405162001ff438038062001ff4833981016040819052620000349162000228565b60017f9b779b17422d0df92223018b32b4d1fa46e071723d6817e2486d003becc55f00556001600160a01b038216620000b45760405162461bcd60e51b815260206004820152601a60248201527f496e76616c696420737461626c65636f696e206164647265737300000000000060448201526064015b60405180910390fd5b6001600160a01b0381166200010c5760405162461bcd60e51b815260206004820152601660248201527f496e76616c6964206f7261636c652061646472657373000000000000000000006044820152606401620000ab565b6001600160a01b038216608052620001266000336200015c565b50620001537f68e79a7bf1e0bc45d0a330c573bc367f9cf464fd326078812f301165fbda4ef1826200015c565b50505062000260565b6000828152602081815260408083206001600160a01b038516845290915281205460ff1662000201576000838152602081815260408083206001600160a01b03861684529091529020805460ff19166001179055620001b83390565b6001600160a01b0316826001600160a01b0316847f2f8788117e7eff1d82e926ec794901d17c78024a50270940304540a733656f0d60405160405180910390a450600162000205565b5060005b92915050565b80516001600160a01b03811681146200022357600080fd5b919050565b600080604083850312156200023c57600080fd5b62000247836200020b565b915062000257602084016200020b565b90509250929050565b608051611d6362000291600039600081816105df01528181610d8d0152818161126101526114b30152611d636000f3fe6080604052600436106101c65760003560e01c806351c6590a116100f7578063a217fddf11610095578063e9cbd82211610064578063e9cbd822146105cd578063f53fdf0914610601578063f966ade714610617578063ff18aab01461062c57600080fd5b8063a217fddf14610533578063bb42bfcc14610548578063d547741f14610596578063e02a4dfd146105b657600080fd5b80637d4da05c116100d15780637d4da05c146104d65780638d5d3429146104eb57806391d14854146104fe5780639b745aec1461051e57600080fd5b806351c6590a1461041d5780635b67d1a21461043d57806373b4086b1461045257600080fd5b80632f2ff15d116101645780633b43228c1161013e5780633b43228c1461039657806345171f26146103b65780634ac6d97b146103e75780634c19386c1461040757600080fd5b80632f2ff15d146102e657806333481fc91461030857806336568abe1461037657600080fd5b806315770f92116101a057806315770f92146102765780631c8ee7201461028c5780631fbe9405146102a1578063248a9ca3146102b657600080fd5b806301ffc9a7146101d2578063079bafe31461020757806307e2cea51461023457600080fd5b366101cd57005b600080fd5b3480156101de57600080fd5b506101f26101ed36600461181c565b610642565b60405190151581526020015b60405180910390f35b34801561021357600080fd5b50610227610222366004611862565b610679565b6040516101fe91906118c5565b34801561024057600080fd5b506102687f68e79a7bf1e0bc45d0a330c573bc367f9cf464fd326078812f301165fbda4ef181565b6040519081526020016101fe565b34801561028257600080fd5b5061026860045481565b34801561029857600080fd5b50610268609681565b3480156102ad57600080fd5b50610268606981565b3480156102c257600080fd5b506102686102d1366004611917565b60009081526020819052604090206001015490565b3480156102f257600080fd5b50610306610301366004611930565b61079a565b005b34801561031457600080fd5b50610328610323366004611862565b6107c5565b6040516101fe9190600060c082019050825182526020830151602083015260408301516040830152606083015160608301526080830151608083015260a0830151151560a083015292915050565b34801561038257600080fd5b50610306610391366004611930565b610864565b3480156103a257600080fd5b506102686103b1366004611960565b61089c565b3480156103c257600080fd5b506103d66103d1366004611862565b610a15565b6040516101fe95949392919061198c565b3480156103f357600080fd5b506103066104023660046119c5565b610ad0565b34801561041357600080fd5b5061026860055481565b34801561042957600080fd5b50610306610438366004611917565b610d2a565b34801561044957600080fd5b50610268605081565b34801561045e57600080fd5b506104a761046d366004611862565b6002602081905260009182526040909120805460018201549282015460038301546004840154600590940154929493919290919060ff1686565b6040805196875260208701959095529385019290925260608401526080830152151560a082015260c0016101fe565b3480156104e257600080fd5b50610268603281565b6103066104f9366004611917565b610e8f565b34801561050a57600080fd5b506101f2610519366004611930565b611374565b34801561052a57600080fd5b5061026861139d565b34801561053f57600080fd5b50610268600081565b34801561055457600080fd5b5061057e610563366004611917565b6003602052600090815260409020546001600160a01b031681565b6040516001600160a01b0390911681526020016101fe565b3480156105a257600080fd5b506103066105b1366004611930565b6113b4565b3480156105c257600080fd5b5061026862278d0081565b3480156105d957600080fd5b5061057e7f000000000000000000000000000000000000000000000000000000000000000081565b34801561060d57600080fd5b506102686101c281565b34801561062357600080fd5b506103066113d9565b34801561063857600080fd5b506102686102a881565b60006001600160e01b03198216637965db0b60e01b148061067357506301ffc9a760e01b6001600160e01b03198316145b92915050565b6040805160a081018252600080825260208201819052918101829052606080820152608081019190915260016000836001600160a01b03166001600160a01b031681526020019081526020016000206040518060a001604052908160008201548152602001600182015481526020016002820154815260200160038201805461070190611a37565b80601f016020809104026020016040519081016040528092919081815260200182805461072d90611a37565b801561077a5780601f1061074f5761010080835404028352916020019161077a565b820191906000526020600020905b81548152906001019060200180831161075d57829003601f168201915b50505091835250506004919091015460ff16151560209091015292915050565b6000828152602081905260409020600101546107b58161168c565b6107bf8383611696565b50505050565b6108006040518060c0016040528060008152602001600081526020016000815260200160008152602001600081526020016000151581525090565b506001600160a01b0316600090815260026020818152604092839020835160c08101855281548152600182015492810192909252918201549281019290925260038101546060830152600481015460808301526005015460ff16151560a082015290565b6001600160a01b038116331461088d5760405163334bd91960e11b815260040160405180910390fd5b6108978282611728565b505050565b60008060016000856001600160a01b03166001600160a01b031681526020019081526020016000206040518060a00160405290816000820154815260200160018201548152602001600282015481526020016003820180546108fd90611a37565b80601f016020809104026020016040519081016040528092919081815260200182805461092990611a37565b80156109765780601f1061094b57610100808354040283529160200191610976565b820191906000526020600020905b81548152906001019060200180831161095957829003601f168201915b50505091835250506004919091015460ff16151560209091015280519091506050116109bb5760646109a9606985611a87565b6109b39190611a9e565b915050610673565b80516032116109d15760646109a9609685611a87565b60405162461bcd60e51b81526020600482015260146024820152734372656469742073636f726520746f6f206c6f7760601b60448201526064015b60405180910390fd5b6001602081905260009182526040909120805491810154600282015460038301805492939192610a4490611a37565b80601f0160208091040260200160405190810160405280929190818152602001828054610a7090611a37565b8015610abd5780601f10610a9257610100808354040283529160200191610abd565b820191906000526020600020905b815481529060010190602001808311610aa057829003601f168201915b5050506004909301549192505060ff1685565b7f68e79a7bf1e0bc45d0a330c573bc367f9cf464fd326078812f301165fbda4ef1610afa8161168c565b600080808080610b0c87890189611ad6565b9450945094509450945060018410158015610b28575060648411155b610b6b5760405162461bcd60e51b8152602060048201526014602482015273496e76616c6964206372656469742073636f726560601b6044820152606401610a0c565b42831115610bae5760405162461bcd60e51b815260206004820152601060248201526f04675747572652074696d657374616d760841b6044820152606401610a0c565b6000828152600360205260409020546001600160a01b03161580610beb57506000828152600360205260409020546001600160a01b038681169116145b610c2f5760405162461bcd60e51b815260206004820152601560248201527415dbdc9b1908125108185b1c9958591e481d5cd959605a1b6044820152606401610a0c565b6040805160a0810182528581526020808201868152828401868152606084018681526001608086018190526001600160a01b038c16600090815294819052959093208451815591519482019490945592516002840155519091906003820190610c989082611c05565b50608091909101516004909101805460ff191691151591909117905560008281526003602090815260409182902080546001600160a01b0319166001600160a01b03891690811790915582518781529182018690529181018490527f1ad06d514caaf2a99f3a34ee496edb82a77f11f4b5cce2274483ee97529514a99060600160405180910390a25050505050505050565b60008111610d6b5760405162461bcd60e51b815260206004820152600e60248201526d125b9d985b1a5908185b5bdd5b9d60921b6044820152606401610a0c565b6040516323b872dd60e01b8152336004820152306024820152604481018290527f00000000000000000000000000000000000000000000000000000000000000006001600160a01b0316906323b872dd906064016020604051808303816000875af1158015610dde573d6000803e3d6000fd5b505050506040513d601f19601f82011682018060405250810190610e029190611cc5565b610e405760405162461bcd60e51b815260206004820152600f60248201526e151c985b9cd9995c8819985a5b1959608a1b6044820152606401610a0c565b8060046000828254610e529190611ce7565b909155505060405181815233907fc17cea59c2955cb181b03393209566960365771dbba9dc3d510180e7cb3120889060200160405180910390a250565b610e97611793565b336000908152600160208181526040808420815160a081018352815481529381015492840192909252600282015490830152600381018054606084019190610ede90611a37565b80601f0160208091040260200160405190810160405280929190818152602001828054610f0a90611a37565b8015610f575780601f10610f2c57610100808354040283529160200191610f57565b820191906000526020600020905b815481529060010190602001808311610f3a57829003601f168201915b50505091835250506004919091015460ff1615156020909101526080810151909150610fc55760405162461bcd60e51b815260206004820152601860248201527f4e6f20616374697665206372656469742070726f66696c6500000000000000006044820152606401610a0c565b805161100a5760405162461bcd60e51b8152602060048201526014602482015273496e76616c6964206372656469742073636f726560601b6044820152606401610a0c565b3360009081526002602052604090206005015460ff16156110645760405162461bcd60e51b81526020600482015260146024820152734578697374696e67206c6f616e2061637469766560601b6044820152606401610a0c565b600082116110aa5760405162461bcd60e51b8152602060048201526013602482015272125b9d985b1a59081b1bd85b88185b5bdd5b9d606a1b6044820152606401610a0c565b816005546004546110bb9190611cfa565b10156111025760405162461bcd60e51b8152602060048201526016602482015275496e73756666696369656e74206c697175696469747960501b6044820152606401610a0c565b600080605083600001511061111e5750606990506101c2611130565b82516032116109d15750609690506102a85b6000606461113e8487611a87565b6111489190611a9e565b90508034101561119a5760405162461bcd60e51b815260206004820152601760248201527f496e73756666696369656e7420636f6c6c61746572616c0000000000000000006044820152606401610a0c565b6040518060c0016040528086815260200134815260200183815260200142815260200162278d00426111cc9190611ce7565b815260016020918201819052336000908152600280845260408083208651815594860151938501939093559184015191830191909155606083015160038301556080830151600483015560a0909201516005918201805460ff19169115159190911790558054879290611240908490611ce7565b909155505060405163a9059cbb60e01b8152336004820152602481018690527f00000000000000000000000000000000000000000000000000000000000000006001600160a01b03169063a9059cbb906044016020604051808303816000875af11580156112b2573d6000803e3d6000fd5b505050506040513d601f19601f820116820180604052508101906112d69190611cc5565b6113145760405162461bcd60e51b815260206004820152600f60248201526e151c985b9cd9995c8819985a5b1959608a1b6044820152606401610a0c565b6040805186815234602082015290810183905233907f470e775e4fa2bd975947314dc912d0dd85338d809a6b967e36382e32a3b6f2bb9060600160405180910390a2505050506113716001600080516020611d0e83398151915255565b50565b6000918252602082815260408084206001600160a01b0393909316845291905290205460ff1690565b60006005546004546113af9190611cfa565b905090565b6000828152602081905260409020600101546113cf8161168c565b6107bf8383611728565b6113e1611793565b336000908152600260205260409020600581015460ff166114355760405162461bcd60e51b815260206004820152600e60248201526d27379030b1ba34bb32903637b0b760911b6044820152606401610a0c565b60008160030154426114479190611cfa565b9050600064496cebb80082846002015485600001546114669190611a87565b6114709190611a87565b61147a9190611a9e565b9050600081846000015461148e9190611ce7565b6040516323b872dd60e01b8152336004820152306024820152604481018290529091507f00000000000000000000000000000000000000000000000000000000000000006001600160a01b0316906323b872dd906064016020604051808303816000875af1158015611504573d6000803e3d6000fd5b505050506040513d601f19601f820116820180604052508101906115289190611cc5565b6115675760405162461bcd60e51b815260206004820152601060248201526f14995c185e5b595b9d0819985a5b195960821b6044820152606401610a0c565b83546005805460009061157b908490611cfa565b909155505060018401805460058601805460ff19169055600091829055604051909190339083908381818185875af1925050503d80600081146115da576040519150601f19603f3d011682016040523d82523d6000602084013e6115df565b606091505b50509050806116305760405162461bcd60e51b815260206004820152601860248201527f436f6c6c61746572616c2072657475726e206661696c656400000000000000006044820152606401610a0c565b8554604080519182526020820186905233917fc7ce0a35f17b490de2a317e7fecb2cae86b1abffb03800b2f492823521382698910160405180910390a250505050505061168a6001600080516020611d0e83398151915255565b565b61137181336117af565b60006116a28383611374565b611720576000838152602081815260408083206001600160a01b03861684529091529020805460ff191660011790556116d83390565b6001600160a01b0316826001600160a01b0316847f2f8788117e7eff1d82e926ec794901d17c78024a50270940304540a733656f0d60405160405180910390a4506001610673565b506000610673565b60006117348383611374565b15611720576000838152602081815260408083206001600160a01b0386168085529252808320805460ff1916905551339286917ff6391f5c32d9c69d2a47ea670b442974b53935d1edc7fd64eb21e047a839171b9190a4506001610673565b61179b6117ec565b6002600080516020611d0e83398151915255565b6117b98282611374565b6117e85760405163e2517d3f60e01b81526001600160a01b038216600482015260248101839052604401610a0c565b5050565b600080516020611d0e8339815191525460020361168a57604051633ee5aeb560e01b815260040160405180910390fd5b60006020828403121561182e57600080fd5b81356001600160e01b03198116811461184657600080fd5b9392505050565b6001600160a01b038116811461137157600080fd5b60006020828403121561187457600080fd5b81356118468161184d565b6000815180845260005b818110156118a557602081850181015186830182015201611889565b506000602082860101526020601f19601f83011685010191505092915050565b602081528151602082015260208201516040820152604082015160608201526000606083015160a060808401526118ff60c084018261187f565b90506080840151151560a08401528091505092915050565b60006020828403121561192957600080fd5b5035919050565b6000806040838503121561194357600080fd5b8235915060208301356119558161184d565b809150509250929050565b6000806040838503121561197357600080fd5b823561197e8161184d565b946020939093013593505050565b85815284602082015283604082015260a0606082015260006119b160a083018561187f565b905082151560808301529695505050505050565b600080602083850312156119d857600080fd5b823567ffffffffffffffff808211156119f057600080fd5b818501915085601f830112611a0457600080fd5b813581811115611a1357600080fd5b866020828501011115611a2557600080fd5b60209290920196919550909350505050565b600181811c90821680611a4b57607f821691505b602082108103611a6b57634e487b7160e01b600052602260045260246000fd5b50919050565b634e487b7160e01b600052601160045260246000fd5b808202811582820484141761067357610673611a71565b600082611abb57634e487b7160e01b600052601260045260246000fd5b500490565b634e487b7160e01b600052604160045260246000fd5b600080600080600060a08688031215611aee57600080fd5b8535611af98161184d565b9450602086013593506040860135925060608601359150608086013567ffffffffffffffff80821115611b2b57600080fd5b818801915088601f830112611b3f57600080fd5b813581811115611b5157611b51611ac0565b604051601f8201601f19908116603f01168101908382118183101715611b7957611b79611ac0565b816040528281528b6020848701011115611b9257600080fd5b8260208601602083013760006020848301015280955050505050509295509295909350565b601f82111561089757600081815260208120601f850160051c81016020861015611bde5750805b601f850160051c820191505b81811015611bfd57828155600101611bea565b505050505050565b815167ffffffffffffffff811115611c1f57611c1f611ac0565b611c3381611c2d8454611a37565b84611bb7565b602080601f831160018114611c685760008415611c505750858301515b600019600386901b1c1916600185901b178555611bfd565b600085815260208120601f198616915b82811015611c9757888601518255948401946001909101908401611c78565b5085821015611cb55787850151600019600388901b60f8161c191681555b5050505050600190811b01905550565b600060208284031215611cd757600080fd5b8151801515811461184657600080fd5b8082018082111561067357610673611a71565b8181038181111561067357610673611a7156fe9b779b17422d0df92223018b32b4d1fa46e071723d6817e2486d003becc55f00a26469706673582212208370cda54ad1eabf651c8c91835be9e179772224016edd0e4a8528afcda5681764736f6c63430008140033","abi":[{"inputs":[{"internalType":"address","name":"_stablecoin","type":"address"},{"internalType":"address","name":"_oracleAddress","type":"address"}],"stateMutability":"nonpayable","type":"constructor"},{"inputs":[],"name":"AccessControlBadConfirmation","type":"error"},{"inputs":[{"internalType":"address","name":"account","type":"address"},{"internalType":"bytes32","name":"neededRole","type":"bytes32"}],"name":"AccessControlUnauthorizedAccount","type":"error"},{"inputs":[],"name":"ReentrancyGuardReentrantCall","type":"error"},{"anonymous":false,"inputs":[{"indexed":true,"internalType":"address","name":"provider","type":"address"},{"indexed":false,"internalType":"uint256","name":"amount","type":"uint256"}],"name":"LiquidityAdded","type":"event"},{"anonymous":false,"inputs":[{"indexed":true,"internalType":"address","name":"provider","type":"address"},{"indexed":false,"internalType":"uint256","name":"amount","type":"uint256"}],"name":"LiquidityRemoved","type":"event"},{"anonymous":false,"inputs":[{"indexed":true,"internalType":"address","name":"borrower","type":"address"},{"indexed":false,"internalType":"uint256","name":"principal","type":"uint256"},{"indexed":false,"internalType":"uint256","name":"interest","type":"uint256"}],"name":"LoanRepaid","type":"event"},{"anonymous":false,"inputs":[{"indexed":true,"internalType":"address","name":"borrower","type":"address"},{"indexed":false,"internalType":"uint256","name":"amount","type":"uint256"},{"indexed":false,"internalType":"uint256","name":"collateral","type":"uint256"},{"indexed":false,"internalType":"uint256","name":"interestRate","type":"uint256"}],"name":"LoanRequested","type":"event"},{"anonymous":false,"inputs":[{"indexed":true,"internalType":"bytes32","name":"role","type":"bytes32"},{"indexed":true,"internalType":"bytes32","name":"previousAdminRole","type":"bytes32"},{"indexed":true,"internalType":"bytes32","name":"newAdminRole","type":"bytes32"}],"name":"RoleAdminChanged","type":"event"},{"anonymous":false,"inputs":[{"indexed":true,"internalType":"bytes32","name":"role","type":"bytes32"},{"indexed":true,"internalType":"address","name":"account","type":"address"},{"indexed":true,"internalType":"address","name":"sender","type":"address"}],"name":"RoleGranted","type":"event"},{"anonymous":false,"inputs":[{"indexed":true,"internalType":"bytes32","name":"role","type":"bytes32"},{"indexed":true,"internalType":"address","name":"account","type":"address"},{"indexed":true,"internalType":"address","name":"sender","type":"address"}],"name":"RoleRevoked","type":"event"},{"anonymous":false,"inputs":[{"indexed":true,"internalType":"address","name":"user","type":"address"},{"indexed":false,"internalType":"uint256","name":"score","type":"uint256"},{"indexed":false,"internalType":"uint256","name":"timestamp","type":"uint256"},{"indexed":false,"internalType":"bytes32","name":"worldIdHash","type":"bytes32"}],"name":"ScoreUpdated","type":"event"},{"inputs":[],"name":"DEFAULT_ADMIN_ROLE","outputs":[{"internalType":"bytes32","name":"","type":"bytes32"}],"stateMutability":"view","type":"function"},{"inputs":[],"name":"LOAN_DURATION","outputs":[{"internalType":"uint256","name":"","type":"uint256"}],"stateMutability":"view","type":"function"},{"inputs":[],"name":"ORACLE_ROLE","outputs":[{"internalType":"bytes32","name":"","type":"bytes32"}],"stateMutability":"view","type":"function"},{"inputs":[],"name":"PRIME_COLLATERAL_RATIO","outputs":[{"internalType":"uint256","name":"","type":"uint256"}],"stateMutability":"view","type":"function"},{"inputs":[],"name":"PRIME_INTEREST_RATE","outputs":[{"internalType":"uint256","name":"","type":"uint256"}],"stateMutability":"view","type":"function"},{"inputs":[],"name":"PRIME_THRESHOLD","outputs":[{"internalType":"uint256","name":"","type":"uint256"}],"stateMutability":"view","type":"function"},{"inputs":[],"name":"STANDARD_COLLATERAL_RATIO","outputs":[{"internalType":"uint256","name":"","type":"uint256"}],"stateMutability":"view","type":"function"},{"inputs":[],"name":"STANDARD_INTEREST_RATE","outputs":[{"internalType":"uint256","name":"","type":"uint256"}],"stateMutability":"view","type":"function"},{"inputs":[],"name":"STANDARD_THRESHOLD","outputs":[{"internalType":"uint256","name":"","type":"uint256"}],"stateMutability":"view","type":"function"},{"inputs":[{"internalType":"uint256","name":"amount","type":"uint256"}],"name":"addLiquidity","outputs":[],"stateMutability":"nonpayable","type":"function"},{"inputs":[{"internalType":"address","name":"user","type":"address"},{"internalType":"uint256","name":"amount","type":"uint256"}],"name":"calculateRequiredCollateral","outputs":[{"internalType":"uint256","name":"","type":"uint256"}],"stateMutability":"view","type":"function"},{"inputs":[{"internalType":"address","name":"","type":"address"}],"name":"creditProfiles","outputs":[{"internalType":"uint256","name":"score","type":"uint256"},{"internalType":"uint256","name":"lastUpdated","type":"uint256"},{"internalType":"bytes32","name":"worldIdHash","type":"bytes32"},{"internalType":"string","name":"justification","type":"string"},{"internalType":"bool","name":"isActive","type":"bool"}],"stateMutability":"view","type":"function"},{"inputs":[],"name":"getAvailableLiquidity","outputs":[{"internalType":"uint256","name":"","type":"uint256"}],"stateMutability":"view","type":"function"},{"inputs":[{"internalType":"address","name":"user","type":"address"}],"name":"getCreditProfile","outputs":[{"components":[{"internalType":"uint256","name":"score","type":"uint256"},{"internalType":"uint256","name":"lastUpdated","type":"uint256"},{"internalType":"bytes32","name":"worldIdHash","type":"bytes32"},{"internalType":"string","name":"justification","type":"string"},{"internalType":"bool","name":"isActive","type":"bool"}],"internalType":"struct CrestVault.CreditProfile","name":"","type":"tuple"}],"stateMutability":"view","type":"function"},{"inputs":[{"internalType":"address","name":"user","type":"address"}],"name":"getLoan","outputs":[{"components":[{"internalType":"uint256","name":"principal","type":"uint256"},{"internalType":"uint256","name":"collateral","type":"uint256"},{"internalType":"uint256","name":"interestRate","type":"uint256"},{"internalType":"uint256","name":"startTime","type":"uint256"},{"internalType":"uint256","name":"dueDate","type":"uint256"},{"internalType":"bool","name":"isActive","type":"bool"}],"internalType":"struct CrestVault.Loan","name":"","type":"tuple"}],"stateMutability":"view","type":"function"},{"inputs":[{"internalType":"bytes32","name":"role","type":"bytes32"}],"name":"getRoleAdmin","outputs":[{"internalType":"bytes32","name":"","type":"bytes32"}],"stateMutability":"view","type":"function"},{"inputs":[{"internalType":"bytes32","name":"role","type":"bytes32"},{"internalType":"address","name":"account","type":"address"}],"name":"grantRole","outputs":[],"stateMutability":"nonpayable","type":"function"},{"inputs":[{"internalType":"bytes32","name":"role","type":"bytes32"},{"internalType":"address","name":"account","type":"address"}],"name":"hasRole","outputs":[{"internalType":"bool","name":"","type":"bool"}],"stateMutability":"view","type":"function"},{"inputs":[{"internalType":"address","name":"","type":"address"}],"name":"loans","outputs":[{"internalType":"uint256","name":"principal","type":"uint256"},{"internalType":"uint256","name":"collateral","type":"uint256"},{"internalType":"uint256","name":"interestRate","type":"uint256"},{"internalType":"uint256","name":"startTime","type":"uint256"},{"internalType":"uint256","name":"dueDate","type":"uint256"},{"internalType":"bool","name":"isActive","type":"bool"}],"stateMutability":"view","type":"function"},{"inputs":[{"internalType":"bytes","name":"encodedData","type":"bytes"}],"name":"receiveScore","outputs":[],"stateMutability":"nonpayable","type":"function"},{"inputs":[{"internalType":"bytes32","name":"role","type":"bytes32"},{"internalType":"address","name":"callerConfirmation","type":"address"}],"name":"renounceRole","outputs":[],"stateMutability":"nonpayable","type":"function"},{"inputs":[],"name":"repayLoan","outputs":[],"stateMutability":"nonpayable","type":"function"},{"inputs":[{"internalType":"uint256","name":"amount","type":"uint256"}],"name":"requestLoan","outputs":[],"stateMutability":"payable","type":"function"},{"inputs":[{"internalType":"bytes32","name":"role","type":"bytes32"},{"internalType":"address","name":"account","type":"address"}],"name":"revokeRole","outputs":[],"stateMutability":"nonpayable","type":"function"},{"inputs":[],"name":"stablecoin","outputs":[{"internalType":"contract IERC20","name":"","type":"address"}],"stateMutability":"view","type":"function"},{"inputs":[{"internalType":"bytes4","name":"interfaceId","type":"bytes4"}],"name":"supportsInterface","outputs":[{"internalType":"bool","name":"","type":"bool"}],"stateMutability":"view","type":"function"},{"inputs":[],"name":"totalBorrowed","outputs":[{"internalType":"uint256","name":"","type":"uint256"}],"stateMutability":"view","type":"function"},{"inputs":[],"name":"totalLiquidity","outputs":[{"internalType":"uint256","name":"","type":"uint256"}],"stateMutability":"view","type":"function"},{"inputs":[{"internalType":"bytes32","name":"","type":"bytes32"}],"name":"worldIdToAddress","outputs":[{"internalType":"address","name":"","type":"address"}],"stateMutability":"view","type":"function"},{"stateMutability":"payable","type":"receive"}]}